:020000040000FA
:0400000002EF0DF00E
:10060000003F065B4F666D7D077F6F777C395E79B3
:1006100071434152524F204445534C494741444F46
:10062000203A20004C4947412F4445534C4947410B
:10063000203A2039200054726162616C686F206634
:10064000696E616C0045434F5030342F45434F5025
:10065000313400414241535445434552203A200031
:100660004741534F4C494E41203A20004D4152439F
:070670004841203A20000080
:100678000450800B0D6E045004240F6E03AE47EF38
:1006880003F049EF03F04AEF03F00F800F50D8B49E
:1006980050EF03F052EF03F067EF03F00F28D8A4F0
:1006A80058EF03F05AEF03F062EF03F0000E016E0B
:1006B800000E026E000E036E000E046E038E000E16
:1006C800046E6FEF03F0000E016E000E026E000E56
:1006D800036E000E046E0850800B0E6E0D500E183F
:1006E800D8B479EF03F07BEF03F07CEF03F00D8CC7
:1006F800085008240E6E07AE84EF03F086EF03F06F
:1007080087EF03F00E800E50D8B48DEF03F08FEF13
:1007180003F0A4EF03F00E28D8A495EF03F097EFA9
:1007280003F09FEF03F0000E056E000E066E000E3C
:10073800076E000E086E078E000E086EACEF03F011
:10074800000E056E000E066E000E076E000E086E97
:100758000F500E5CD8B0B3EF03F0B5EF03F0DCEF49
:1007680003F00DACBAEF03F0BCEF03F0BEEF03F0FB
:10077800800E0D1A0FC010F00EC00FF010C00EF052
:1007880001C010F005C001F010C005F002C010F063
:1007980006C002F010C006F003C010F007C003F056
:1007A80010C007F004C010F008C004F010C008F032
:1007B800000E106E0F500EC009F00A6A095E000E96
:1007C8000A5A0ABEF1EF03F00A5009E11A0E095C51
:1007D800D8A0F1EF03F0F3EF03F02AEF04F0015093
:1007E800021003100410D8A4FCEF03F0FFEF03F08D
:1007F800010E00EF04F0000E106E000E016E000EE8
:10080800026E000E036E000E046E0EC00FF033EF82
:1008180004F010A012EF04F014EF04F01AEF04F043
:10082800D89010300109106E1CEF04F0D8901032E7
:1008380001A021EF04F023EF04F024EF04F0108E60
:10084800043404320332023201320F2A0E500F5C94
:10085800D8A031EF04F033EF04F00DEF04F00DBC35
:1008680038EF04F03AEF04F07AEF04F00F50D8A410
:1008780040EF04F042EF04F04CEF04F0000E016E7C
:10088800000E026E000E036E000E046E9BEF05F064
:100898000550012606500222075003220850042260
:1008A80004A059EF04F05BEF04F007EF05F010A087
:1008B80060EF04F062EF04F068EF04F0D8901030B5
:1008C8000109106E6AEF04F0D890103201A06FEFA2
:1008D80004F071EF04F072EF04F0108E0434043267
:1008E8000332023201320F2A07EF05F00550015C8E
:1008F80006500258075003580450800A096E0850E1
:10090800800A0958D8B08BEF04F08DEF04F0B8EFE7
:1009180004F00150055C096E025006580A6E035037
:1009280007580B6E045008580C6EFF0E0924016E10
:10093800FF0E0A20026EFF0E0B20036EFF0E0C2026
:10094800046E800E0D1A106C1050D8A4AEEF04F08F
:10095800B0EF04F0C0EF04F0010E0126000E0222F1
:1009680003220422C0EF04F00550015E0650025A2B
:100978000750035A0850045A01500210031004107B
:10098800D8A4C9EF04F0CBEF04F000EF05F0105045
:10099800D8A4D1EF04F0D3EF04F000EF05F0000E77
:1009A800016E000E026E000E036E000E046E9BEFC9
:1009B80005F0D890013602360336043610AEE7EF5C
:1009C80004F0E9EF04F0EAEF04F0018010A0EFEF83
:1009D80004F0F1EF04F0F5EF04F0D8801036F7EFEB
:1009E80004F0D89010360F50D8B4FDEF04F0FFEFA4
:1009F80004F000EF05F00F0603AE05EF05F007EF72
:100A080005F0DDEF04F0000E0E6E10AE0EEF05F0EF
:100A180010EF05F028EF05F010C009F07F0E091659
:100A2800D8B419EF05F01BEF05F01FEF05F0010E24
:100A38000E6E28EF05F001A024EF05F026EF05F073
:100A480028EF05F01BEF05F00E50D8B42EEF05F097
:100A580030EF05F05BEF05F0010E0126000E0222D3
:100A68000322042204A03BEF05F03DEF05F05BEF05
:100A780005F001C009F002C00AF003C00BF004C081
:100A88000CF00C340C320B320A32093209C001F076
:100A98000AC002F00BC003F00CC004F00F28D8B451
:100AA80058EF05F05AEF05F05BEF05F00F2A0F2815
:100AB800D8B461EF05F063EF05F06BEF05F00F5068
:100AC800D8A469EF05F06BEF05F07DEF05F0000E97
:100AD800016E000E026E000E036E000E046E0F50C3
:100AE800D8A479EF05F07BEF05F07DEF05F0000E57
:100AF8000D6E0FA082EF05F084EF05F087EF05F08B
:100B0800038E88EF05F0039ED8900F30046E0DAE6B
:100B180090EF05F092EF05F093EF05F0048E01C019
:100B280001F002C002F003C003F004C004F0120098
:100B3800000E206E100E1F6E4D0E1B6E300E1D6EB9
:100B4800000E146E000E156E000E166E000E176E57
:100B5800000E136E000E126E310E1A6E340E1C6EDD
:100B6800300E116E9BEC0BF026EC0DF00DEC0DF039
:100B780017EC0DF0948E949C010E096E000EB8ECE3
:100B88000CF0450E096E060E0A6E71EC0CF0000EA4
:100B9800096E010EB8EC0CF0360E096E060E0A6EE0
:100BA80071EC0CF0130E026E880E016E99EC0CF0CD
:100BB8000F0E956E9490969003EC0AF021EC0DF0D0
:100BC8001F50011809E120500218D8B4EEEF05F0C3
:100BD800F0EF05F0AEEF06F021EC0DF001C01FF0CC
:100BE80002C020F01FA6FBEF05F0FDEF05F002EFB5
:100BF80006F0320E1B6E2D0E11EC0CF01FAE07EF37
:100C080006F009EF06F00EEF06F0310E1B6E200E0F
:100C180011EC0CF01FA413EF06F015EF06F01AEF15
:100C280006F0340E1B6E4B0E11EC0CF01FAC1FEFD0
:100C380006F021EF06F026EF06F0330E1B6E400E8D
:100C480011EC0CF01FA22BEF06F02DEF06F032EF9F
:100C580006F0520E1B6E200E11EC0CF01FAA37EF97
:100C680006F039EF06F03EEF06F0350E1B6E600E0B
:100C780011EC0CF020A043EF06F045EF06F049EF29
:100C880006F0000E136E010E126E20A24EEF06F053
:100C980050EF06F064EF06F0010E5CEC0BF0310E3D
:100CA8001D18D8A45AEF06F05CEF06F060EF06F0C6
:100CB800300E1D6E64EF06F0310E1D6E4D0E1B6E6C
:100CC80020A469EF06F06BEF06F089EF06F0310E0D
:100CD8001D18D8A472EF06F074EF06F089EF06F03D
:100CE80094909690000E186E8270010E026EF40EAB
:100CF800016E99EC0CF0182A040E186486EF06F0C1
:100D080088EF06F078EF06F0829020A68EEF06F0C6
:100D180090EF06F0AEEF06F0310E1D18D8A497EF4D
:100D280006F099EF06F0AEEF06F094909690000E5C
:100D3800196E8470010E026EF40E016E99EC0CF0BF
:100D4800192A040E1964ABEF06F0ADEF06F09DEF1B
:100D580006F08490310E1D18D8A4B5EF06F0B7EF51
:100D680006F08BEF07F0000E096E000EB8EC0CF0E1
:100D78006C0E096E060E0A6E71EC0CF01B5047ECF7
:100D88000CF0000E096E010EB8EC0CF0600E096E46
:100D9800060E0A6E71EC0CF01A5047EC0CF01C5061
:100DA80047EC0CF0000E026E0A0E016E99EC0CF086
:100DB80036EF07F0010E5CEC0BF0000E096E000E2A
:100DC800B8EC0CF0530E096E060E0A6E71EC0CF0BE
:100DD800070E076ED00E066E15EC0BF01E6EA50EF4
:100DE8001E18D8B4FAEF06F0FCEF06F0ECEF06F0A8
:100DF8001EC01AF01A5047EC0CF0070E076ED00E02
:100E0800066E15EC0BF01E6EA50E1E6E13EF07F0A6
:100E1800070E076ED00E066E15EC0BF01E6EA50EB3
:100E28001E18D8B41AEF07F01CEF07F00CEF07F004
:100E38001EC01CF0A50E1E6E1C5047EC0CF0200EB8
:100E480047EC0CF04C0E47EC0CF00B0E026EB80E93
:100E5800016E99EC0CF0010E5CEC0BF0000E136EB9
:100E6800000E126E12041310D8B43DEF07F03FEFD6
:100E780007F0DEEF06F014C001F015C002F016C04E
:100E880003F017C004F0000E056E000E066E7A0E11
:100E9800076E440E086EC0EC0AF0D8A056EF07F0B3
:100EA80058EF07F06FEF07F0000E146E000E156E86
:100EB800000E166E000E176E300E1C18D8A467EFC1
:100EC80007F069EF07F06EEF07F0390E1C6E1A068F
:100ED8006FEF07F01C0614C001F015C002F016C031
:100EE80003F017C004F0000E056E000E066E800EAB
:100EF800076E3F0E086E3CEC03F001C014F002C010
:100F080015F003C016F004C017F0DCEF05F0000E72
:100F180011EC0CF0000E136E000E126E4D0E1B6ECF
:100F28008290000E096E000EB8EC0CF0110E096EDE
:100F3800060E0A6E71EC0CF0000E096E010EB8EC8C
:100F48000CF0240E096E060E0A6E71EC0CF0000E01
:100F5800026E050E016E99EC0CF0DCEF05F000EF67
:100F680000F002BEC3EF07F0025007E1080E015C73
:100F7800D8B0C1EF07F0C3EF07F0EDEF07F003506B
:100F88000410D8B4CAEF07F0CCEF07F0DCEF07F095
:100F980001C005F0010E066E052AD5EF07F0D890BE
:100FA8000636052ED3EF07F006509212DBEF08F055
:100FB80001C005F0010E066E052AE5EF07F0D8908E
:100FC8000636052EE3EF07F00650FF0A9216DBEF10
:100FD80008F002BEFBEF07F0025007E1100E015CBB
:100FE800D8B0F9EF07F0FBEF07F029EF08F003504E
:100FF8000410D8B402EF08F004EF08F016EF08F078
:1010080001C005F0F80E0526010E066E052A0FEF41
:1010180008F0D8900636052E0DEF08F0065093120A
:10102800DBEF08F001C005F0F80E0526010E066E8C
:10103800052A21EF08F0D8900636052E1FEF08F094
:101048000650FF0A9316DBEF08F002BE37EF08F0F0
:10105800025007E1180E015CD8B035EF08F037EF01
:1010680008F065EF08F003500410D8B43EEF08F01C
:1010780040EF08F052EF08F001C005F0F00E052629
:10108800010E066E052A4BEF08F0D8900636052E9D
:1010980049EF08F006509412DBEF08F001C005F0A4
:1010A800F00E0526010E066E052A5DEF08F0D890B1
:1010B8000636052E5BEF08F00650FF0A9416DBEFA4
:1010C80008F002BE73EF08F0025007E1200E015C41
:1010D800D8B071EF08F073EF08F0A1EF08F00350F3
:1010E8000410D8B47AEF08F07CEF08F08EEF08F01F
:1010F80001C005F0E80E0526010E066E052A87EFE9
:1011080008F0D8900636052E85EF08F0065095129F
:10111800DBEF08F001C005F0E80E0526010E066EAB
:10112800052A99EF08F0D8900636052E97EF08F0B3
:101138000650FF0A9516DBEF08F002BEAFEF08F085
:10114800025007E1280E015CD8B0ADEF08F0AFEF10
:1011580008F0DBEF08F003500410D8B4B6EF08F03D
:10116800B8EF08F0CAEF08F001C005F0E00E052658
:10117800010E066E052AC3EF08F0D8900636052E34
:10118800C1EF08F006509612DBEF08F001C005F039
:10119800E00E0526010E066E052AD5EF08F0D89058
:1011A8000636052ED3EF08F00650FF0A96161200F1
:1011B80002BEEAEF08F0025007E1080E015CD8B061
:1011C800E8EF08F0EAEF08F014EF09F00350041014
:1011D800D8B4F1EF08F0F3EF08F003EF09F001C01D
:1011E80005F0010E066E052AFCEF08F0D8900636C9
:1011F800052EFAEF08F00650801202EF0AF001C03F
:1012080005F0010E066E052A0CEF09F0D890063697
:10121800052E0AEF09F00650FF0A801602EF0AF0C1
:1012280002BE22EF09F0025007E1100E015CD8B0AF
:1012380020EF09F022EF09F050EF09F0F80E01262F
:10124800FF0E022203500410D8B42DEF09F02FEF3F
:1012580009F03FEF09F001C005F0010E066E052AFE
:1012680038EF09F0D8900636052E36EF09F006500B
:10127800811202EF0AF001C005F0010E066E052A80
:1012880048EF09F0D8900636052E46EF09F00650CB
:10129800FF0A811602EF0AF002BE5EEF09F0025063
:1012A80007E1180E015CD8B05CEF09F05EEF09F0B9
:1012B8008CEF09F0F00E0126FF0E022203500410F5
:1012C800D8B469EF09F06BEF09F07BEF09F001C0C2
:1012D80005F0010E066E052A74EF09F0D89006365F
:1012E800052E72EF09F00650821202EF0AF001C0D3
:1012F80005F0010E066E052A84EF09F0D89006362F
:10130800052E82EF09F00650FF0A821602EF0AF056
:1013180002BE9AEF09F0025007E1200E015CD8B036
:1013280098EF09F09AEF09F0C8EF09F0E80E0126E6
:10133800FF0E022203500410D8B4A5EF09F0A7EF5E
:1013480009F0B7EF09F001C005F0010E066E052A95
:10135800B0EF09F0D8900636052EAEEF09F006502A
:10136800831202EF0AF001C005F0010E066E052A8D
:10137800C0EF09F0D8900636052EBEEF09F00650EA
:10138800FF0A831602EF0AF002BED6EF09F00250F8
:1013980007E1280E015CD8B0D4EF09F0D6EF09F0C8
:1013A80002EF0AF0E00E0126FF0E0222035004109D
:1013B800D8B4E1EF09F0E3EF09F0F3EF09F001C069
:1013C80005F0010E066E052AECEF09F0D8900636F6
:1013D800052EEAEF09F00650841202EF0AF001C068
:1013E80005F0010E066E052AFCEF09F0D8900636C6
:1013F800052EFAEF09F00650FF0A8416120083CF73
:1014080006F00F0E9512000E0A6EF80E93160AC01B
:1014180001F0010E026E012A14EF0AF0D89002368C
:10142800012E12EF0AF002509312070E81120AC021
:1014380001F0010E026E012A24EF0AF0D89002365C
:10144800012E22EF0AF00250FF0A8116000E086EE4
:10145800000E076E074A082A08BE3CEF0AF008503B
:1014680009E10A0E075CD8A03CEF0AF03EEF0AF04B
:101478002EEF0AF0000E096E09C001F0010E026E8F
:10148800012A49EF0AF0D8900236012E47EF0AF0F8
:10149800025083140009D8A454EF0AF056EF0AF05A
:1014A8006EEF0AF00A50040DF3500924016E010E84
:1014B800026E000E036E012A65EF0AF0D89002361C
:1014C8000336012E62EF0AF0025023120350241251
:1014D80088EF0AF00A50040DF3500924016E010E3A
:1014E800026E000E036E012A7DEF0AF0D8900236D4
:1014F8000336012E7AEF0AF0021C046E031C056EF7
:101508000450231605502416092A030E09648FEF88
:101518000AF091EF0AF040EF0AF00A2A020E0A6474
:1015280098EF0AF09AEF0AF009EF0AF02350211811
:1015380007E124502218D8A4A4EF0AF0A6EF0AF075
:10154800A9EF0AF02706AFEF0AF00A0E276E23C0AC
:1015580021F024C022F02750D8A4B5EF0AF0B7EF45
:101568000AF0BBEF0AF021C025F022C026F006C021
:1015780083FF000E956E1200000E0114096E000E16
:1015880002140A6E800E03140B6E7F0E04140C6E88
:1015980009500A100B100C10D8A4D5EF0AF0D7EF99
:1015A8000AF0DFEF0AF0000E016E000E026E000E68
:1015B800036E000E046E000E0514096E000E06146C
:1015C8000A6E800E07140B6E7F0E08140C6E0950FD
:1015D8000A100B100C10D8A4F4EF0AF0F6EF0AF07A
:1015E800FEEF0AF0000E056E000E066E000E076E86
:1015F800000E086E055001180FE1065002180CE1A4
:101608000750031809E108500418D8B40EEF0BF07E
:1016180010EF0BF013EF0BF0D89014EF0BF0D8800D
:101628001200000E096E000E086EABB41EEF0BF030
:1016380020EF0BF027EF0BF0ABA225EF0BF027EF15
:101648000BF035EF0BF0AB98AB8835EF0BF0000ED5
:10165800026E140E016E99EC0CF0140E0826000EA2
:1016680009220650085C07500958D8A03EEF0BF035
:1016780040EF0BF049EF0BF006500710D8A447EFE6
:101688000BF049EF0BF050EF0BF09EAA4EEF0BF06A
:1016980050EF0BF02BEF0BF09EAA55EF0BF057EF26
:1016A8000BF05AEF0BF0AE505BEF0BF0A50E1200EB
:1016B800086E83CF07F0000E956E000E026E220EA4
:1016C800016E000E046E000E036EDCEC08F008C01C
:1016D80083FF000E026E210E016E000E046E010ED5
:1016E800036EDCEC08F0000E026E210E016E000E97
:1016F800046E000E036EDCEC08F007C083FF020ED8
:101708000818D8B48AEF0BF08CEF0BF094EF0BF0BD
:101718000804D8A492EF0BF094EF0BF098EF0BF0BD
:10172800E8EC0CF09AEF0BF0F6EC0CF01200000E5F
:10173800026E220E016E000E046E000E036EB5ECF2
:1017480007F0000E026E210E016E000E046E000EF0
:10175800036EB5EC07F0000E956EE8EC0CF0E8ECC3
:101768000CF0E8EC0CF0E8EC0CF0E8EC0CF0380EBF
:101778005CEC0BF0E8EC0CF0E8EC0CF0380E5CECF0
:101788000BF0E8EC0CF0380E5CEC0BF0380E5CEC6F
:101798000BF0060E5CEC0BF00C0E5CEC0BF0010E83
:1017A8005CEC0BF01200000E066E000E056E035086
:1017B8000410D8B4E2EF0BF0E4EF0BF00CEF0CF0F0
:1017C800010E076EECEF0BF0D89003360436072AAB
:1017D80004AEF1EF0BF0F3EF0BF0E8EF0BF0D8905D
:1017E800053606360350015C04500258D8A0FFEFB6
:1017F8000BF001EF0CF006EF0CF00350015E045003
:10180800025A0580D89004320332072EF3EF0BF00A
:1018180005C001F006C002F012000A6E010ECB24CA
:10182800016E026A000E02220AC003F0046AD5ECB7
:101838000CF001C00BF002C00CF00BC001F00CC0A2
:1018480002F0000E046E190E036ED7EC0BF001C007
:101858000BF002C00CF0FF0E0B16030E0C160BC09B
:1018680008F00CC009F0D89009320832D890093233
:1018780008320850BE6E0BC008F0030E0816083870
:10188800F00BBD121200076E83CF08F0000E956EA4
:10189800000E026E220E016E000E046E010E036E23
:1018A800DCEC08F007C083FF000E026E210E016E0B
:1018B800000E046E010E036EDCEC08F0000E026EE2
:1018C800210E016E000E046E000E036EDCEC08F0B3
:1018D80008C083FFF6EC0CF01200000E0D6E84EFCA
:1018E8000CF00D5009240B6E000E0A200C6E0BC074
:1018F800F6FF0CC0F7FF0800F55047EC0CF00D2A76
:101908000D5009240B6E000E0A200C6E0BC0F6FF5A
:101918000CC0F7FF0800F5500009D8A496EF0CF0AA
:1019280098EF0CF075EF0CF01200000E046E000E2C
:10193800036EACEF0CF0000E056E052AC70E0564A9
:10194800A8EF0CF0AAEF0CF0A1EF0CF0034A042A60
:101958000150035C02500458D8A0B5EF0CF0B7EF63
:101968000CF09FEF0CF012000B6E000E0A6E0B507D
:10197800D8A4C1EF0CF0C3EF0CF0C6EF0CF009507F
:10198800800F0A6E0B04D8A4CCEF0CF0CEEF0CF04D
:10199800D1EF0CF00950C00F0A6E0A505CEC0BF046
:1019A800120001500302F3CF05F0F4CF06F0015006
:1019B8000402F350062602500302F350062605C01F
:1019C80001F006C002F01200000E026EF6EC0CF0F8
:1019D800022A310E0264F3EF0CF0F5EF0CF0EAEF97
:1019E8000CF01200000E016E012A180E0164FFEFC0
:1019F8000CF001EF0DF0F8EF0CF0120000EE21F002
:101A08000C0EEE6AE806FDE1000EF86E00019CEF90
:101A180005F0670EAF6EAC9CAC8AAC98AC84AB8E0C
:101A2800AB9CAB88120094929494030ECA12CA8499
:101A38000C0EBD120C0EBA12120025C001F026C001
:0E1A480002F01200070E93160F0E95121200F8
:020000040020DA
:08000000FFFFFFFFFFFFFFFF00
:020000040030CA
:0E000000FF027100FF8380FF0FC00FE00F4072
:00000001FF
